:10000000B9C1D3C190C8D1C1D0C143C8CEC1CDC13F
:10001000CCC1CBC1CAC1C9C1C8C1C7C1C6C1080012
:100020000000BE922449123EABAAAA2ABECDCCCC77
:100030004C3E00000080BEABAAAAAA3E0000000011
:10004000BF000000803F0000000000084178D3BBE3
:100050004387D1133D190E3CC3BD4282AD2B3E6890
:10006000EC8276BED98FE1A93E4C80EFFFBE01C481
:10007000FF7F3F000000000071454940454B40456F
:100080004B72713D4573494D424D424B483D3D3D9C
:100090007271744B454240484900494D3D40483DCE
:1000A0004D453E4C403142484F4900495B3D3D453E
:1000B0003E314C4F4D454D45494D003D45493D3D37
:1000C0004D454C4F3D4D485E4B003D3D3D45453A0D
:1000D0003037453E49313A36454252314C51493D1F
:1000E000453E3248523A333938393432334500319B
:1000F000414D3D3D454D454D494F70003D3D314CD5
:10010000493E314C484F53003D3D4531424F4C53E1
:10011000003D3D45314C4F4C530032455231423D3C
:10012000324C4800523D514C324800523D513E4CF9
:10013000324800314C3D3D3D313245493130455129
:1001400042514C3152484950323A353036363238C5
:100150004B4F4845003E493D314C494D49503E3199
:100160004C4B48003D3D3D45314C4F51455E005E96
:100170003E39304C005B3D3D453E314C4F480039E7
:10018000304C5B003C33003C32003C3100403300DB
:100190004032004031004C495400434D4400435329
:1001A0005400415448004143480041534800544ED4
:1001B000480043534800534E480041544E004143C9
:1001C000530041534E0054414E00434F5300534996
:1001D0004E004C5200535441004E44005056003ED5
:1001E00052003E50003F004C4E0045585000312F09
:1001F0005800593B002C58007F0175016F016401C4
:10020000550133012B0124011A0111010801FC00E1
:10021000EF00CA00BB00AB009A007800C8A1A81F7D
:10022000DA0220008D1400000000380000000000F9
:100230003700020202020202020202020102040864
:10024000102020041008F501F201EE01EA01E70197
:10025000E501E201DF01DC01D901D501D201CE01C6
:10026000CA01C601C201BE01BA01B601B201AE01A6
:10027000AA01A601A2019E019A0196019301900193
:100280008D018A0187018401107F0101010808089E
:100290000808006060000020100804027F4141410E
:1002A0007F0000027F00794949494F414949497F10
:1002B0000F0808087F4F494949797F49494979031F
:1002C0000101017F7F4949497F4F4949497F00002A
:1002D000000000001B041B00007F3E1C0804BEBF82
:1002E000BE0408083E1C0800002F00001C3E3E3ED5
:1002F0001C7F0909097F7F49494F787F414141406F
:10030000417F41417F7F494949417F090909017F77
:10031000414949797F0808087F00417F41004040FA
:1003200040407F7F08080F787F404040407F0107B2
:10033000017F7F017F407F7F4141417F7F09090924
:100340000F7F4171417F7F0909794F4F49494978B2
:1003500001017F01017F4040407F1F7040701F7F7F
:100360004070407F780F080F780F0878080F7151A0
:100370005D45470011241FBECFE5D2E0DEBFCDBFF3
:1003800010E0A0E6B0E0ECEDFEE102C005900D92B9
:10039000A03FB107D9F721E0A0EFB0E001C01D9266
:1003A000A739B207E1F7C9D697CD2ACE2FB7F8946F
:1003B00060910B0170910C0180910D0190910E01E3
:1003C0002FBF08952F923F924F925F926F927F922C
:1003D0008F929F92AF92BF92CF92DF92EF92FF9255
:1003E0000F931F93CF93DF9300D000D01F92CDB710
:1003F000DEB7862EB72EA82E992E49834130E9F517
:1004000000E010E080E88D838FE38C83202E1A8338
:100410008D818B833C80CC24C394D12C20E030E0B0
:10042000A901B8018D819C8196DA87FF2BC025E94F
:100430003FEB46ED53EBB8018D819C818CDA87FD53
:100440002BC0622D7A818B81932D0F900F900F908E
:100450000F900F90DF91CF911F910F91FF90EF9030
:10046000DF90CF90BF90AF909F908F907F906F90D4
:100470005F904F903F902F900895062F172F8D83F8
:100480009C83C4CF25E93FEB46ED53E3B8018D8152
:100490009C81B0DB1816ACF684E6C816D10489F24C
:1004A0008981813031F5B6010D2C000C880B990B38
:1004B000F1DA9B01AC01682D7B2D8A2D992D4FDA45
:1004C0009B01AC01B8018D819C81DDDB8B018D83AB
:1004D0009C839B014D815C81622D7A818B81932D60
:1004E000D6D9262E7A838B83392E8FEFC81AD80A55
:1004F00095CF7601EE0CFF1C282D3B2D4A2D592D52
:10050000682D7B2D8A2D992DBEDB2B013C01C70167
:100510000196B7015FDCBC01990F880B990BBADA21
:100520009B01AC01C301B2011ADA2B013C018981A4
:10053000A30192015058823029F2B701615071092C
:10054000CB0148DCBC01990F880B990BA3DAA301FE
:10055000920199DBB5CFE2E3F1E080819181A28144
:10056000B381448155816681778140835183628361
:10057000738384839583A683B783089584E1E0EF32
:10058000F0E0A2E3B1E001900D928A95E1F70895C1
:10059000E2E3F1E080819181A281B381808B918B34
:1005A000A28BB38B0895CF93DF93C2E3D1E021EE0A
:1005B0003EE245E652E4688179818A819B81CFD908
:1005C00042E000DF688379838A839B83DF91CF9148
:1005D000089584E1E2E3F1E0A6E4B1E001900D9238
:1005E0008A95E1F70895CF93C82F60E070E080E826
:1005F0009FE31C164CF0CF5FC13071F020E030E07B
:1006000040E251E4ACD9F7CFC15030F020E030E007
:1006100040E251E438DBF8CFCF9108958091930107
:10062000875380935E0190E062E970E0D3DB895BE1
:100630009F4F90935D0180935C010895EFDF81E00F
:10064000809360010895EADF81E0809362008093E7
:100650005F010895089581E080935A0110928B0103
:100660000895CF93DF93C2E3D1E0288139814A8195
:100670005B8160E070E080E89FE371D968837983F3
:100680008A839B83DF91CF910895CF93DF93C2E359
:10069000D1E0688179818A819B8141E093DE688322
:1006A00079838A839B83DF91CF910895E2E3F1E020
:1006B00080819181A281B381B05880839183A2838C
:1006C000B38381E08093620008958F929F92AF92EE
:1006D000BF92CF92DF92EF92FF92809162008823C7
:1006E00089F010923201109233011092340110926D
:1006F0003501FF90EF90DF90CF90BF90AF909F902B
:100700008F900895C0903201D0903301E090340171
:10071000F090350180913101882349F125E93FEBC3
:1007200046ED53E3C701B60165DA1816ECF4809183
:1007300004018823C9F081508093040154DF4B01E8
:100740005C01AC019B01C701B6019DDA70D9A2D949
:10075000A501940104D96093320170933301809311
:10076000340190933501C5CF10923101C2CF20E002
:1007700030E040E251E4C701B601F1D858D98AD936
:10078000EACFCF93DF93C2E3D1E0688179818A8198
:100790009B8144E017DE21EE3EE245E652E473DA47
:1007A000688379838A839B83DF91CF91089585B78E
:1007B000806285BF889585B78F7D85BF80B5807F36
:1007C00080BD80B5886080BD0895CF93DF93C82F2A
:1007D000EDDDD62FEBDD6D1B6C17E0F3DF91CF91D4
:1007E0000895E0912101E13148F4EF5FE0932101A8
:1007F000F0E0E15FFE4F808381E0089580E008959E
:100800001092210188E780930F0180E0EACF1092D7
:10081000210188E780930F0180E4E3CFCF93DF933A
:10082000C2E3D1E0688179818A819B81ECD96883B8
:1008300079838A839B83DF91CF91089520E030E014
:10084000A90160913201709133018091340190913E
:10085000350181D88823B9F0E1DF20E030E040E0C5
:100860005FE3609132017091330180913401909186
:10087000350109DA609332017093330180933401BA
:100880009093350102CF08958CE0EEE4F1E0AAE305
:10089000B1E001900D928A95E1F7089580E1EAE4D4
:1008A000F1E0A6E3B1E001900D928A95E1F7089599
:1008B000CF93DF93C2E3D1E0488159816A817B8184
:1008C0008CE0E6E3F1E0DE0101900D928A95E1F71C
:1008D0004C875D876E877F87DF91CF910895E8DF32
:1008E000E7DFE6CF88E0EAE3F1E0A6E3B1E00190DC
:1008F0000D928A95E1F70895CF93DF93C2E3D1E09B
:10090000288139814A815B816C817D818E819F81C3
:10091000BDD7688379838A839B83DF91CF91E2CFB0
:10092000CF93DF93C2E3D1E02C813D814E815F8183
:10093000688179818A819B81A6D9688379838A833A
:100940009B83DF91CF91CECF06DE68DFE9DF9DDEAE
:100950000895CF93DF93C2E3D1E0688179818A81E2
:100960009B8165D8862F3FDE688379838A839B834A
:10097000D7DF81E080936200DF91CF910895CF931C
:10098000DF93C2E3D1E0288139814A815B816C81A8
:100990007D818E819F81E3D7688379838A839B835E
:1009A000DF91CF919FCFCF93DF93C2E3D1E02C8132
:1009B0003D814E815F81688179818A819B8167D782
:1009C000688379838A839B83DF91CF918BCF1F9339
:1009D000CF93DF93C2E3D1E06C817D818E819F81D3
:1009E0002BD8162F688179818A819B8125D8862F03
:1009F00090E0612F4596DF91CF911F9139C7DF922B
:100A0000EF92FF920F931F93CF93DF936091320188
:100A10007091330180913401909135010DD806E336
:100A200011E0C62FD0E0C851D140F801D1908F011C
:100A30007E01EE0EFF1EC70113D7D81619F06D2DDB
:100A4000C70116D7F1E00A331F0779F7DF91CF917D
:100A50001F910F91FF90EF90DF9008950F931F93D8
:100A6000CF93DF9360913201709133018091340113
:100A700090913501E1D702E311E0C62FD0E0C351D8
:100A8000D140CE01800F911FEBD6F80181938F01E9
:100A9000F1E006331F07A9F7DF91CF911F910F9166
:100AA00008956091320170913301809134019091E9
:100AB0003501C2D78CE0E6E3F1E0A2E3B1E00190BA
:100AC0000D928A95E1F7862F90E04596C9D6E82FDA
:100AD000F0E0EE0FFF1FEC58FF4F0190F081E02D8A
:100AE0000994CF93C82F81E0CD3008F082E0809345
:100AF00062016FDDEC2FF0E0EE0FFF1FE850FE4FBC
:100B00006591749183E691E0A4D610928B0181E007
:100B100080938C01809362001092310110926101E8
:100B2000CF91089588E0DDCF81E0DBCF8CE0D9CF95
:100B300025DD80E1D6CF86E0D4CF8EE0D2CF84E031
:100B4000D0CF8FE0CECF8DE0CCCF81E1CACF85E092
:100B5000C8CF87E0C6CF80E0C4CF8BE0C2CF83E0B0
:100B6000C0CF89E0BECF8AE0BCCF82E0BACFC29AC4
:100B7000C29BFECF8AE18A95F1F700C0C09885E15B
:100B80008A95F1F70000C298C09A779905C083E072
:100B90008093050180E0089581E008958EB98BE28D
:100BA0009AE19A95F1F700C08DB9B29BFECF95E11D
:100BB0009A95F1F700008DB9769BF2CF8AE18A957C
:100BC000F1F700C08FB19FEF9FB9B89A0895CF9207
:100BD000DF92EF92FF920F931F93CF93DF930091D9
:100BE000210181E08093050180910F0180FD03C008
:100BF00083E080930501BBDF882311F10F5F102F85
:100C0000CFE0D1E0DD24DA94CC24C3947E018FEFD1
:100C1000E81AF80A80910501837009F447C0C29868
:100C200088818FB980EFBADFB8988EEFB7DF9091E7
:100C3000050180FF10C081E090FF82E080930501F4
:100C400010922101DF91CF911F910F91FF90EF90B2
:100C5000DF90CF900895892F8570843061F4809162
:100C60000F01816080930F01C092050180DF811127
:100C700029C08AE0E3CF9E7F90930501E7011150E0
:100C800029F610922101C098C29AB29BFECF85E14D
:100C90008A95F1F70000C09A8AE18A95F1F700C0C1
:100CA0007599D0CF84E080930501CCCFB89880EFC0
:100CB00075DF8883113021F4DFB88EEF6FDFDECF70
:100CC0001FB8FBCF102FCFE0D1E0D9CF99DD8EEA4E
:100CD00088DD7DDF88EC79DD85B7877E806185BF23
:100CE00080B58F6080BD63DD8BDD8FEA7ADD6FCFED
:100CF0000F931F93CF93DF9360918D0190E080E07D
:100D0000B7D502E311E0C1E0D0E0F80161918F01B5
:100D1000CE01AED52196C531D105B9F7DF91CF917E
:100D20001F910F91D3CFCF93DF93C82FD62F68DDBC
:100D30009D2F977080916000892B53DD8C2F8295B9
:100D40008F7080614EDD8C2F8F704BDD40DFC09344
:100D50009601D0939501DF91CF9108957F928F9264
:100D60009F92AF92BF92CF92DF92EF92FF920F933A
:100D70001F93CF93DF93A62E909096018C52990BE0
:100D800065E070E027D8D0E0C0E0B12C88579D4FD7
:100D90007C018C2E6E01CC0CDD1C10E000E0F70114
:100DA000E00FF11F849190E02091940102C0880F20
:100DB000991F2A95E2F722E0A21248C099270C2C2D
:100DC00002C0959587950A94E2F78F70782E770C7C
:100DD000770C87298373782E770C782A872D857571
:100DE000782E880F782A13DD872DFBDC811104C053
:100DF000EEDE0DDD872DF5DC872DF3DC811104C0DF
:100E0000E6DE05DD872DEDDCE2DE0F5F1F4F0530EE
:100E1000110529F6B394AB100EC0DF91CF911F914D
:100E20000F91FF90EF90DF90CF90BF90AF909F9089
:100E30008F907F90089590929601609195016F5FD9
:100E400060939501892D6FDF2296A3CF24E0782E41
:100E5000A212C9CF9927082C02C0959587950A94AC
:100E6000E2F78370782E770C770C770C87298171E5
:100E7000782E770C8729782E770C782A872DB1CF9A
:100E8000EF92FF920F931F93CF93DF938C01F0901B
:100E90009601E0909501C0E08C2F90E0F801019060
:100EA0000020E9F73197E01BF10B8E179F0778F4CC
:100EB000800F911FFC01D0818C2F6CE082D76E2DAA
:100EC0008F0D31DF62E08D2F49DFCF5FE5CFDF91FE
:100ED000CF911F910F91FF90EF900895CF93C82F5E
:100EE0008FDC81E87EDC8C2F7CDCCF9170CE609132
:100EF00032017091330180913401909135019CD57C
:100F0000862F60938D01EACF4CE050E062E371E000
:100F100086E391E0D0C780916101811101C0F4DFC7
:100F20001092320110923301109234011092350167
:100F300010920401109262001092310108958F9274
:100F40009F92AF92BF92CF92DF92EF92FF928091E9
:100F500062008111E0DFC0903201D0903301E09057
:100F60003401F0903501609193016053770B072EA7
:100F7000000C880B990B8ED54B015C0180913101DF
:100F80008823F9F0809104018F5F809304012BDBAB
:100F90009B01AC01C501B401E2D4A701960177D44D
:100FA0006093320170933301809334019093350143
:100FB000FF90EF90DF90CF90BF90AF909F908F9079
:100FC000089520E030E040E251E4C701B6015BD66D
:100FD000A5019401E4CF98DFE2E3F1E080899189F3
:100FE000A289B38980839183A283B3830895EF920A
:100FF000FF920F931F93CF93DF93C0EFD0E002E3F4
:1010000011E06991799189919991F801219131913A
:10101000419151918F017E01F4E0EF1AF10837D42C
:10102000F7016083718382839383F1E0C430DF072B
:1010300041F7A4DADF91CF911F910F91FF90EF90CC
:10104000CACF62DF81E080936200809361010895DE
:101050005BDF8CE087B98AE0B8DB369A3699FECF41
:1010600065B184B1762F682F072E000C880B990B81
:1010700011D59B01AC016AE979EA8CE894E46FD45C
:101080006093320170933301809334019093350162
:1010900008951F920F920FB60F9211242F933F9332
:1010A0008F939F93AF93BF9380910B0190910C010D
:1010B000A0910D01B0910E0130910A0123E0230FA0
:1010C0002D3758F50196A11DB11D20930A0180937B
:1010D0000B0190930C01A0930D01B0930E01809130
:1010E000060190910701A0910801B09109010196B4
:1010F000A11DB11D8093060190930701A0930801E3
:10110000B0930901BF91AF919F918F913F912F9122
:101110000F900FBE0F901F90189526E8230F029690
:10112000A11DB11DD2CF1F920F920FB60F921124A5
:101130000F900FBE0F901F901895CF93DF93CDB7F0
:10114000DEB760970FB6F894DEBF0FBECDBF7894C0
:101150008AB582608ABD8AB581608ABD83B78260A4
:1011600083BF83B7816083BF89B7826089BF80B73F
:10117000826080BF80B7816080BF329A319A309A96
:10118000379A8CB580648CBDC09AC29ABA9AB89AC4
:101190008FEF8FB98AE28DB980EF8EB9109221015D
:1011A00088E780930F0180E01CDB0CE112E066E22F
:1011B000E62E62E0F62EF801849113DB0F5F1F4FDD
:1011C000E016F106C1F703DD8091600094E0892705
:1011D00080936000EFE3F2E02491E5E3F2E0849194
:1011E0008823C9F090E0880F991FFC01E45DFD4F52
:1011F00045915491FC01EA5DFD4FA591B4919FB7D3
:10120000F894FA0180812095822380838C91E22FCB
:10121000E823EC939FBFAB9A8AB780628ABF8BB7F3
:1012200080628BBF84E68093220190E080E018D337
:1012300080938D0153DE42E3E42E41E0F42E01E081
:1012400010E0C8010DD3F70181937F010F5F1F4F9D
:1012500005311105B1F701E09AE0A92E2AE3722EBB
:101260003DE2632EA3D880912301882341F01092A0
:101270002301E0E0F0E0EF2BA9F3C2D6EDCF80919F
:101280002401F62FF81B8F2F90912201F91758F4A3
:101290008F5F891770F785B7877E85BF80B58160BE
:1012A00080BD85DAE6CF009323016093240180910D
:1012B0006300882309F45DC0109263008FEF809370
:1012C000930180919301882381F070D860938E01FF
:1012D00070938F01809390019093910180918D0183
:1012E000FDDD8EDA8FEA7DDA72DC60D8C0908E0187
:1012F000D0908F01E0909001F09091016C197D09E0
:101300008E099F0928EE33E040E050E081D52F316F
:1013100008F46FC0DBDC80918C01882309F4ACC039
:1013200080918B01E82FF0E0ED59FE4F9081909372
:10133000930191116BC02091620130E0C901880FC7
:10134000991F880F991F45E050E0421B530B440F33
:10135000551F440F551FBC016A5B7E4F8E5C9E4F2C
:10136000A1D510928C01009362008FEF80939301BE
:101370005CC083E087B9369A3699FECF84B165B1F7
:10138000762F682F80E1E4E6F0E0DE01119601900F
:101390000D928A95E1F780E0673E7105F4F075954E
:1013A00067956B5E7109072E000C880B990B72D341
:1013B0002AD420E030E040E05FE365D441E002D889
:1013C00020E030E040E85FE361D236D3E1E0F0E0D6
:1013D000EC0FFD1FE60FF11D80818093930190912A
:1013E0009201981303C0109293016BCF80939201E6
:1013F00068CF253128F004DA8EEAF3D9E8DB8BCF09
:101400002B3008F488CF80E069DD85CF9B3350F422
:10141000882321F0319790819B3324F00093620060
:10142000109261018F5F80938B01809193018F33C4
:1014300009F070C080915B0191E0892780935B0186
:101440008FEF80939301E0919301EE2309F411CF84
:10145000EF3F09F46FC080915A01882309F4BAC0A4
:10146000EC3309F08FC080918B01882309F460C0B0
:10147000815080938B015EC020916001211104C0D6
:1014800080915F01882389F280915E0190E001964E
:1014900062E970E09FD4895B9F4F7C01609193016A
:1014A000222311F1662379F080915C0190915D0116
:1014B0008E159F0544F49C012F5F3F4F30935D01D3
:1014C00020935C01D5D1809193018B3341F08091C1
:1014D0005C0190915D018E159F050CF4A6CF1092D2
:1014E000600110925F0141CF6B3329F410925F01CC
:1014F0008FEF8093930180915C0190915D019C013D
:101500002F5F3F4F30935D0120935C01A9D1809301
:101510009301D9CF8A3309F096CF80915B01811175
:1015200092CF809162008111F6DC009331018BCF64
:10153000A0928B0160E080E0F6DB69D9E12C52E0FB
:10154000F52E80E04ED9811104C041DB60D980E0E6
:1015500048D9E1E0EE1AF108A1F739DB00939401D4
:1015600080918C01811105C080915F01882309F46D
:1015700055C062E080E0D7DB8CEE90E081DC22E0B9
:10158000B22E8EC0EE3349F480918B018A3010F474
:101590008F5F6FCF10928B01CDCFEB3319F4109288
:1015A0005A01C8CF89EC8E0F833020F680918B01D1
:1015B00090E063E070E00ED4E80FF92FF11DEE0F1C
:1015C000FF1FEE5CFF4F0190F081E02D0995009325
:1015D0006200E5CF80915B01882389F0EA52FF0B1E
:1015E000EE0FFF1FEC58FF4F0190F081E02D0995A1
:1015F0001092610110925B01009362009BCFEA336D
:1016000010F49DDC97CFE953FF0BEE0FFF1FEC5852
:10161000FF4F0190F081E02D09958CCF80915A0108
:10162000882311F110E080918B0190E063E070E07D
:10163000D1D3FC01EE0DFF1DEE0FFF1FEA5BFD4F46
:101640006591749185E291E004D162E0812F6BDBBA
:1016500085E291E015DCFFEFEF1AFF0A115D83E0F0
:10166000E816F10401F78BCF109227017092260142
:101670007092250180916001882319F080E48093A5
:10168000250180915B01882319F08DE38093260169
:1016900062E08AE648DB85E291E0F2DB34E0B32EDB
:1016A0001092940180918C018111BBC080915F01E7
:1016B0008111B7C020903201309033014090340145
:1016C0005090350120E030E0A901C201B10143D1C1
:1016D00087FDB8C070922501C201B10194D22EE8F5
:1016E0003DE543E150E43BD1A2D1162F962E8BEF7E
:1016F000810F79D79B01AC01C201B10130D120E04B
:1017000030E040E05FE3C3D092D16B017C011C1458
:101710001D041E041F04CCF4BDD120E030E543ECD1
:1017200057E419D187FF11C011508AEF890D5BD79B
:101730009B01AC01C201B10112D120E030E040E0D8
:101740005FE3A5D074D16B017C019BE2892E91E00F
:10175000992EC701B6012AE030E040E050E07AD38C
:10176000605DF401608369017A01F1E08F1A9108EC
:1017700085E291E08815990561F78DE217FF8AE30C
:1017800080932C0117FD119590E31A3034F0812FCE
:101790006A2D31D36A2D2FD3905D90932D01812F27
:1017A0006A2D29D3905D90932E011091250160E060
:1017B00080E0B9DA6B2D812FD1DA60E087E1B3DA0E
:1017C0006B2D8EE2CBDA1091260160E08CE0ABDA73
:1017D0006B2D812FC3DA8CE2E82E81E0F82E6701B1
:1017E00010E580E0F60192906F01F0E39F1202C0D5
:1017F000882339F060E0812F96DA6B2D892DAEDADF
:1018000081E01C50143171F71EE5F701D1907F0182
:1018100060E0812F88DA62E08D2DA0DA145F123843
:10182000A1F710916100F0E21F2710936100E8D743
:10183000812FD7D7CCD98091600094E089278093FD
:10184000600017CD57FA509457F8509460922501D4
:1018500043CFFB01DC0105900D920020E1F70895D4
:10186000E199FECF9FBB8EBBE09A99278DB3089577
:10187000262FE199FECF1CBA9FBB8EBB2DBB0FB6A6
:10188000F894E29AE19A0FBE019608955058BB274A
:10189000AA270ED075C166D130F06BD120F031F49B
:1018A0009F3F11F41EF45BC10EF4E095E7FB51C1BC
:1018B000E92F77D180F3BA1762077307840795077A
:1018C00018F071F49EF58FC10EF4E0950B2EBA2F2F
:1018D000A02D0B01B90190010C01CA01A001112436
:1018E000FF27591B99F0593F50F4503E68F11A16E2
:1018F000F040A22F232F342F4427585FF3CF469573
:1019000037952795A795F0405395C9F77EF41F1694
:10191000BA0B620B730B840BBAF09150A1F0FF0F5E
:10192000BB1F661F771F881FC2F70EC0BA0F621F4A
:10193000731F841F48F4879577956795B795F7953A
:101940009E3F08F0B3CF9395880F08F09927EE0FCC
:10195000979587950895D9D008F481E008950CD023
:101960000FC107D140F0FED030F021F45F3F19F0F5
:10197000F0C0511139C1F3C014D198F39923C9F3C0
:101980005523B1F3951B550BBB27AA276217730785
:10199000840738F09F5F5F4F220F331F441FAA1F39
:1019A000A9F333D00E2E3AF0E0E830D091505040F9
:1019B000E695001CCAF729D0FE2F27D0660F771FA7
:1019C000881FBB1F261737074807AB07B0E809F089
:1019D000BB0B802DBF01FF2793585F4F2AF09E3F1E
:1019E000510568F0B6C000C15F3FECF3983EDCF3F0
:1019F000869577956795B795F7959F5FC9F7880F97
:101A0000911D9695879597F90895E1E0660F771FE8
:101A1000881FBB1F621773078407BA0720F0621B79
:101A2000730B840BBA0BEE1F88F7E095089504D072
:101A30006894B111D9C00895BCD088F09F5790F038
:101A4000B92F9927B751A0F0D1F0660F771F881FE3
:101A5000991F1AF0BA95C9F712C0B13081F0C3D0FE
:101A6000B1E00895C0C0672F782F8827B85F39F09C
:101A7000B93FCCF3869577956795B395D9F73EF442
:101A800090958095709561957F4F8F4F9F4F0895EA
:101A9000E89409C097FB3EF4909580957095619508
:101AA0007F4F8F4F9F4F9923A9F0F92F96E9BB27BE
:101AB0009395F695879577956795B795F111F8CF3A
:101AC000FAF4BB0F11F460FF1BC06F5F7F4F8F4FA5
:101AD0009F4F16C0882311F096E911C0772321F09B
:101AE0009EE8872F762F05C0662371F096E8862F33
:101AF00070E060E02AF09A95660F771F881FDAF78A
:101B0000880F9695879597F90895990F0008550FB6
:101B1000AA0BE0E8FEEF16161706E807F907C0F073
:101B200012161306E407F50798F0621B730B840B7B
:101B3000950B39F40A2661F0232B242B252B21F455
:101B400008950A2609F4A140A6958FEF811D811DF5
:101B5000089597F99F6780E870E060E008959FEF2F
:101B600080EC089500240A94161617061806090634
:101B7000089500240A941216130614060506089503
:101B8000092E0394000C11F4882352F0BB0F40F48B
:101B9000BF2B11F460FF04C06F5F7F4F8F4F9F4FCB
:101BA000089557FD9058440F551F59F05F3F71F04D
:101BB0004795880F97FB991F61F09F3F79F08795B4
:101BC0000895121613061406551FF2CF4695F1DF3D
:101BD00008C0161617061806991FF1CF86957105CD
:101BE000610508940895E894BB2766277727CB0101
:101BF00097F908958ADF08F48FEF08950EF0AEC0CC
:101C0000AECF6894A6CFD5DFC8F39923D1F3C6F33E
:101C1000DF93CF931F930F93FF92C92FDD27882364
:101C20002AF02197660F771F881FDAF720E030E04F
:101C300040E85FEB9FE3883920F0803E30F021964A
:101C40008F7725DEEEE1F0E003C021DEEBE4F0E08B
:101C500093D08B01BE01EC01FB2E6F577109759576
:101C6000771F880B990B16DF28E132E741E35FE32A
:101C700015D0AF2D9801AE01FF900F911F91CF911C
:101C8000DF9116DE7DCF0AD07BCF6CDF28F071DFCD
:101C900018F0952309F05DCF62CFA6CF82DFA8F3BD
:101CA0009923D9F35523C9F3950F50E0551FAA275F
:101CB000EE27FF27BB2700240894679520F4E20F46
:101CC000F31FB41F0A1E220F331F441FAA1F66955D
:101CD000A9F7779530F4F30FB41F0A1E121E08F40B
:101CE0006395330F441FAA1F221F769599F7879596
:101CF00020F4B40F0A1E121E631F440FAA1F221FD6
:101D0000331F8695A9F7862F712D602D11249F57BB
:101D100050408AF0E1F088234AF0EE0FFF1FBB1F0E
:101D2000661F771F881F91505040A9F79E3F5105AD
:101D300070F00FCF59CF5F3FECF3983EDCF3869500
:101D400077956795B795F795E7959F5FC1F7FE2B58
:101D5000880F911D9695879597F908959F3F31F0CB
:101D6000915020F4879577956795B795880F911DC9
:101D70009695879597F90895DF93CF931F930F93C7
:101D8000FF92EF92DF927B018C01689405C0DA2EFE
:101D9000EF0184DFFE01E894A591259135914591ED
:101DA0005591AEF3EF0184DDFE019701A801DA94AD
:101DB00079F7DF90EF90FF900F911F91CF91DF9116
:101DC0000895002480FD060E660F11F08695D1F768
:101DD000802D08950024552704C0080E591F880F30
:101DE000991F009729F076956795B8F37105B9F7B3
:101DF000802D952F089587FB082E062687FD819557
:101E000067FD619543D00EF4919507FC8195089587
:101E1000A1E21A2EAA1BBB1BFD010DC0AA1FBB1FEE
:101E2000EE1FFF1FA217B307E407F50720F0A21B60
:101E3000B30BE40BF50B661F771F881F991F1A94CD
:101E400069F760957095809590959B01AC01BD01F7
:101E5000CF010895052E97FB16F400940FD057FD7F
:101E600005D0D6DF07FC02D046F408C05095409557
:101E7000309521953F4F4F4F5F4F08959095809536
:101E8000709561957F4F8F4F9F4F0895991B79E013
:101E900004C0991F961708F0961B881F7A95C9F7FA
:101EA00080950895FB01DC0102C001900D92415024
:101EB0005040D8F708956817790768F4FB01DC01F2
:101EC000E40FF51FA40FB51F02C002900E924150FF
:0C1ED0005040D8F70895E6CFF894FFCFFB
:101EDC00B04001013D3A303B3332313E3635343C73
:101EEC003938373F9F072A036503A9042108560395
:101EFC002808EB07C8027C042E05510590042B031F
:101F0C009605BF04AB0278066F04D30458042A0369
:101F1C001E04A404310345030E04A7059D05A10569
:101F2C009F05A3059805A505D302AB059405C10330
:101F3C00B505AF059B05A9059205B105B305AD0522
:101F4C00FF04E70477071E031E031E03230323036A
:101F5C002303F707BE02E9024E04440452554E0017
:00000001FF
